{
  "address": "0xCf7Ed3AccA5a467e9e704C703E8D87F634fB0Fc9",
  "abi": [
    {
      "anonymous": false,
      "inputs": [
        {
          "indexed": false,
          "internalType": "uint8",
          "name": "version",
          "type": "uint8"
        }
      ],
      "name": "Initialized",
      "type": "event"
    },
    {
      "anonymous": false,
      "inputs": [
        {
          "indexed": true,
          "internalType": "address",
          "name": "by",
          "type": "address"
        },
        {
          "indexed": true,
          "internalType": "int256",
          "name": "x",
          "type": "int256"
        },
        {
          "indexed": true,
          "internalType": "int256",
          "name": "y",
          "type": "int256"
        },
        {
          "indexed": false,
          "internalType": "uint256",
          "name": "colorId",
          "type": "uint256"
        }
      ],
      "name": "PixelPlaced",
      "type": "event"
    },
    {
      "inputs": [
        {
          "internalType": "int256",
          "name": "x",
          "type": "int256"
        },
        {
          "internalType": "int256",
          "name": "y",
          "type": "int256"
        }
      ],
      "name": "getPixel",
      "outputs": [
        {
          "internalType": "uint256",
          "name": "colorId",
          "type": "uint256"
        }
      ],
      "stateMutability": "view",
      "type": "function"
    },
    {
      "inputs": [
        {
          "internalType": "address",
          "name": "_ink",
          "type": "address"
        }
      ],
      "name": "initialize",
      "outputs": [],
      "stateMutability": "nonpayable",
      "type": "function"
    },
    {
      "inputs": [
        {
          "internalType": "int256",
          "name": "x",
          "type": "int256"
        },
        {
          "internalType": "int256",
          "name": "y",
          "type": "int256"
        },
        {
          "internalType": "uint256",
          "name": "colorId",
          "type": "uint256"
        }
      ],
      "name": "setPixel",
      "outputs": [
        {
          "internalType": "bool",
          "name": "success",
          "type": "bool"
        }
      ],
      "stateMutability": "nonpayable",
      "type": "function"
    }
  ],
  "transactionHash": "0x4f2898e461b14d4aecd5c8428dedefca42d08b8206a461760119e81d50aa0dad",
  "args": [],
  "numDeployments": 1,
  "solcInputHash": "049a1e16857048794cd3c87aca10be36",
  "bytecode": "0x608060405234801561001057600080fd5b506103c0806100206000396000f3fe608060405234801561001057600080fd5b50600436106100415760003560e01c8063c4d66de814610046578063d9c882651461005b578063e1999ae314610099575b600080fd5b61005961005436600461030c565b6100bc565b005b61008661006936600461033c565b600091825260016020908152604080842092845291905290205490565b6040519081526020015b60405180910390f35b6100ac6100a736600461035e565b6101e6565b6040519015158152602001610090565b600054610100900460ff16158080156100dc5750600054600160ff909116105b806100f65750303b1580156100f6575060005460ff166001145b61015e5760405162461bcd60e51b815260206004820152602e60248201527f496e697469616c697a61626c653a20636f6e747261637420697320616c72656160448201526d191e481a5b9a5d1a585b1a5e995960921b60648201526084015b60405180910390fd5b6000805460ff191660011790558015610181576000805461ff0019166101001790555b600280546001600160a01b0319166001600160a01b03841617905580156101e2576000805461ff0019169055604051600181527f7f26b83ff96e1f2b6a682f133852f6798a09c465da95921460cefb38474024989060200160405180910390a15b5050565b60006101f433858585610251565b600084815260016020908152604080832086845282529182902084905590518381528491869133917fa10f60c00a29a07432732671be707227dab31b7f8b0b60f0eb229fa3e9b8b0e1910160405180910390a45060019392505050565b601881106102995760405162461bcd60e51b815260206004820152601560248201527421b0b73b30b99d103ab735b737bbb71031b7b637b960591b6044820152606401610155565b600254604051632770a7eb60e21b81526001600160a01b038681166004830152670de0b6b3a7640000602483015290911690639dc29fac90604401600060405180830381600087803b1580156102ee57600080fd5b505af1158015610302573d6000803e3d6000fd5b5050505050505050565b60006020828403121561031e57600080fd5b81356001600160a01b038116811461033557600080fd5b9392505050565b6000806040838503121561034f57600080fd5b50508035926020909101359150565b60008060006060848603121561037357600080fd5b50508135936020830135935060409092013591905056fea26469706673582212209b6a3f23c599a81fbe4c9a0130ae777b29a690fc8459524b40e6494a62e4524b64736f6c63430008090033",
  "devdoc": {
    "kind": "dev",
    "methods": {},
    "version": 1
  },
  "userdoc": {
    "kind": "user",
    "methods": {},
    "version": 1
  },
  "storageLayout": {
    "storage": [
      {
        "astId": 216,
        "contract": "contracts/Canvas.sol:Canvas",
        "label": "_initialized",
        "offset": 0,
        "slot": "0",
        "type": "t_uint8"
      },
      {
        "astId": 219,
        "contract": "contracts/Canvas.sol:Canvas",
        "label": "_initializing",
        "offset": 1,
        "slot": "0",
        "type": "t_bool"
      },
      {
        "astId": 8357,
        "contract": "contracts/Canvas.sol:Canvas",
        "label": "pixels",
        "offset": 0,
        "slot": "1",
        "type": "t_mapping(t_int256,t_mapping(t_int256,t_uint256))"
      },
      {
        "astId": 8360,
        "contract": "contracts/Canvas.sol:Canvas",
        "label": "ink",
        "offset": 0,
        "slot": "2",
        "type": "t_contract(Ink)8560"
      }
    ],
    "types": {
      "t_bool": {
        "encoding": "inplace",
        "label": "bool",
        "numberOfBytes": "1"
      },
      "t_contract(Ink)8560": {
        "encoding": "inplace",
        "label": "contract Ink",
        "numberOfBytes": "20"
      },
      "t_int256": {
        "encoding": "inplace",
        "label": "int256",
        "numberOfBytes": "32"
      },
      "t_mapping(t_int256,t_mapping(t_int256,t_uint256))": {
        "encoding": "mapping",
        "key": "t_int256",
        "label": "mapping(int256 => mapping(int256 => uint256))",
        "numberOfBytes": "32",
        "value": "t_mapping(t_int256,t_uint256)"
      },
      "t_mapping(t_int256,t_uint256)": {
        "encoding": "mapping",
        "key": "t_int256",
        "label": "mapping(int256 => uint256)",
        "numberOfBytes": "32",
        "value": "t_uint256"
      },
      "t_uint256": {
        "encoding": "inplace",
        "label": "uint256",
        "numberOfBytes": "32"
      },
      "t_uint8": {
        "encoding": "inplace",
        "label": "uint8",
        "numberOfBytes": "1"
      }
    }
  }
}