{
  "address": "0xa513E6E4b8f2a923D98304ec87F64353C4D5C853",
  "abi": [
    {
      "anonymous": false,
      "inputs": [
        {
          "indexed": true,
          "internalType": "address",
          "name": "owner",
          "type": "address"
        },
        {
          "indexed": true,
          "internalType": "address",
          "name": "spender",
          "type": "address"
        },
        {
          "indexed": false,
          "internalType": "uint256",
          "name": "value",
          "type": "uint256"
        }
      ],
      "name": "Approval",
      "type": "event"
    },
    {
      "anonymous": false,
      "inputs": [
        {
          "indexed": true,
          "internalType": "address",
          "name": "delegator",
          "type": "address"
        },
        {
          "indexed": true,
          "internalType": "address",
          "name": "fromDelegate",
          "type": "address"
        },
        {
          "indexed": true,
          "internalType": "address",
          "name": "toDelegate",
          "type": "address"
        }
      ],
      "name": "DelegateChanged",
      "type": "event"
    },
    {
      "anonymous": false,
      "inputs": [
        {
          "indexed": true,
          "internalType": "address",
          "name": "delegate",
          "type": "address"
        },
        {
          "indexed": false,
          "internalType": "uint256",
          "name": "previousBalance",
          "type": "uint256"
        },
        {
          "indexed": false,
          "internalType": "uint256",
          "name": "newBalance",
          "type": "uint256"
        }
      ],
      "name": "DelegateVotesChanged",
      "type": "event"
    },
    {
      "anonymous": false,
      "inputs": [
        {
          "indexed": false,
          "internalType": "uint8",
          "name": "version",
          "type": "uint8"
        }
      ],
      "name": "Initialized",
      "type": "event"
    },
    {
      "anonymous": false,
      "inputs": [
        {
          "indexed": true,
          "internalType": "address",
          "name": "user",
          "type": "address"
        },
        {
          "indexed": false,
          "internalType": "uint256",
          "name": "reward",
          "type": "uint256"
        }
      ],
      "name": "RewardPaid",
      "type": "event"
    },
    {
      "anonymous": false,
      "inputs": [
        {
          "indexed": true,
          "internalType": "address",
          "name": "user",
          "type": "address"
        },
        {
          "indexed": false,
          "internalType": "uint256",
          "name": "amount",
          "type": "uint256"
        },
        {
          "indexed": false,
          "internalType": "uint256",
          "name": "lockup",
          "type": "uint256"
        },
        {
          "indexed": false,
          "internalType": "uint256",
          "name": "totalShares",
          "type": "uint256"
        },
        {
          "indexed": false,
          "internalType": "uint256",
          "name": "idx",
          "type": "uint256"
        }
      ],
      "name": "Staked",
      "type": "event"
    },
    {
      "anonymous": false,
      "inputs": [
        {
          "indexed": true,
          "internalType": "address",
          "name": "from",
          "type": "address"
        },
        {
          "indexed": true,
          "internalType": "address",
          "name": "to",
          "type": "address"
        },
        {
          "indexed": false,
          "internalType": "uint256",
          "name": "value",
          "type": "uint256"
        }
      ],
      "name": "Transfer",
      "type": "event"
    },
    {
      "anonymous": false,
      "inputs": [
        {
          "indexed": true,
          "internalType": "address",
          "name": "user",
          "type": "address"
        },
        {
          "indexed": true,
          "internalType": "uint256",
          "name": "idx",
          "type": "uint256"
        },
        {
          "indexed": false,
          "internalType": "uint256",
          "name": "penalty",
          "type": "uint256"
        }
      ],
      "name": "Withdrawn",
      "type": "event"
    },
    {
      "inputs": [],
      "name": "DOMAIN_SEPARATOR",
      "outputs": [
        {
          "internalType": "bytes32",
          "name": "",
          "type": "bytes32"
        }
      ],
      "stateMutability": "view",
      "type": "function"
    },
    {
      "inputs": [],
      "name": "accumulatedPerShare",
      "outputs": [
        {
          "internalType": "uint256",
          "name": "",
          "type": "uint256"
        }
      ],
      "stateMutability": "view",
      "type": "function"
    },
    {
      "inputs": [
        {
          "internalType": "address",
          "name": "owner",
          "type": "address"
        },
        {
          "internalType": "address",
          "name": "spender",
          "type": "address"
        }
      ],
      "name": "allowance",
      "outputs": [
        {
          "internalType": "uint256",
          "name": "",
          "type": "uint256"
        }
      ],
      "stateMutability": "view",
      "type": "function"
    },
    {
      "inputs": [
        {
          "internalType": "address",
          "name": "spender",
          "type": "address"
        },
        {
          "internalType": "uint256",
          "name": "amount",
          "type": "uint256"
        }
      ],
      "name": "approve",
      "outputs": [
        {
          "internalType": "bool",
          "name": "",
          "type": "bool"
        }
      ],
      "stateMutability": "nonpayable",
      "type": "function"
    },
    {
      "inputs": [
        {
          "internalType": "address",
          "name": "account",
          "type": "address"
        }
      ],
      "name": "balanceOf",
      "outputs": [
        {
          "internalType": "uint256",
          "name": "",
          "type": "uint256"
        }
      ],
      "stateMutability": "view",
      "type": "function"
    },
    {
      "inputs": [
        {
          "internalType": "uint256",
          "name": "_supply",
          "type": "uint256"
        }
      ],
      "name": "calcCurrentEmissions",
      "outputs": [
        {
          "internalType": "uint256",
          "name": "",
          "type": "uint256"
        }
      ],
      "stateMutability": "view",
      "type": "function"
    },
    {
      "inputs": [
        {
          "internalType": "uint256",
          "name": "amount",
          "type": "uint256"
        },
        {
          "internalType": "uint256",
          "name": "lockupPeriod",
          "type": "uint256"
        }
      ],
      "name": "calcLockupMultiplier",
      "outputs": [
        {
          "internalType": "uint256",
          "name": "",
          "type": "uint256"
        }
      ],
      "stateMutability": "view",
      "type": "function"
    },
    {
      "inputs": [
        {
          "internalType": "uint256",
          "name": "amount",
          "type": "uint256"
        },
        {
          "internalType": "uint256",
          "name": "lockupPeriod",
          "type": "uint256"
        },
        {
          "internalType": "uint256",
          "name": "lockupTimestamp",
          "type": "uint256"
        }
      ],
      "name": "calcWithdrawalWithPenalty",
      "outputs": [
        {
          "internalType": "uint256",
          "name": "withdrawable",
          "type": "uint256"
        }
      ],
      "stateMutability": "view",
      "type": "function"
    },
    {
      "inputs": [
        {
          "internalType": "address",
          "name": "account",
          "type": "address"
        },
        {
          "internalType": "uint32",
          "name": "pos",
          "type": "uint32"
        }
      ],
      "name": "checkpoints",
      "outputs": [
        {
          "components": [
            {
              "internalType": "uint32",
              "name": "fromBlock",
              "type": "uint32"
            },
            {
              "internalType": "uint224",
              "name": "votes",
              "type": "uint224"
            }
          ],
          "internalType": "struct ERC20VotesUpgradeable.Checkpoint",
          "name": "",
          "type": "tuple"
        }
      ],
      "stateMutability": "view",
      "type": "function"
    },
    {
      "inputs": [
        {
          "internalType": "address",
          "name": "",
          "type": "address"
        }
      ],
      "name": "debtOf",
      "outputs": [
        {
          "internalType": "uint256",
          "name": "",
          "type": "uint256"
        }
      ],
      "stateMutability": "view",
      "type": "function"
    },
    {
      "inputs": [],
      "name": "decimals",
      "outputs": [
        {
          "internalType": "uint8",
          "name": "",
          "type": "uint8"
        }
      ],
      "stateMutability": "view",
      "type": "function"
    },
    {
      "inputs": [
        {
          "internalType": "address",
          "name": "spender",
          "type": "address"
        },
        {
          "internalType": "uint256",
          "name": "subtractedValue",
          "type": "uint256"
        }
      ],
      "name": "decreaseAllowance",
      "outputs": [
        {
          "internalType": "bool",
          "name": "",
          "type": "bool"
        }
      ],
      "stateMutability": "nonpayable",
      "type": "function"
    },
    {
      "inputs": [
        {
          "internalType": "address",
          "name": "delegatee",
          "type": "address"
        }
      ],
      "name": "delegate",
      "outputs": [],
      "stateMutability": "nonpayable",
      "type": "function"
    },
    {
      "inputs": [
        {
          "internalType": "address",
          "name": "delegatee",
          "type": "address"
        },
        {
          "internalType": "uint256",
          "name": "nonce",
          "type": "uint256"
        },
        {
          "internalType": "uint256",
          "name": "expiry",
          "type": "uint256"
        },
        {
          "internalType": "uint8",
          "name": "v",
          "type": "uint8"
        },
        {
          "internalType": "bytes32",
          "name": "r",
          "type": "bytes32"
        },
        {
          "internalType": "bytes32",
          "name": "s",
          "type": "bytes32"
        }
      ],
      "name": "delegateBySig",
      "outputs": [],
      "stateMutability": "nonpayable",
      "type": "function"
    },
    {
      "inputs": [
        {
          "internalType": "address",
          "name": "account",
          "type": "address"
        }
      ],
      "name": "delegates",
      "outputs": [
        {
          "internalType": "address",
          "name": "",
          "type": "address"
        }
      ],
      "stateMutability": "view",
      "type": "function"
    },
    {
      "inputs": [],
      "name": "getCurrentRewardPerSecond",
      "outputs": [
        {
          "internalType": "uint256",
          "name": "",
          "type": "uint256"
        }
      ],
      "stateMutability": "view",
      "type": "function"
    },
    {
      "inputs": [
        {
          "internalType": "uint256",
          "name": "blockNumber",
          "type": "uint256"
        }
      ],
      "name": "getPastTotalSupply",
      "outputs": [
        {
          "internalType": "uint256",
          "name": "",
          "type": "uint256"
        }
      ],
      "stateMutability": "view",
      "type": "function"
    },
    {
      "inputs": [
        {
          "internalType": "address",
          "name": "account",
          "type": "address"
        },
        {
          "internalType": "uint256",
          "name": "blockNumber",
          "type": "uint256"
        }
      ],
      "name": "getPastVotes",
      "outputs": [
        {
          "internalType": "uint256",
          "name": "",
          "type": "uint256"
        }
      ],
      "stateMutability": "view",
      "type": "function"
    },
    {
      "inputs": [
        {
          "internalType": "address",
          "name": "account",
          "type": "address"
        }
      ],
      "name": "getVotes",
      "outputs": [
        {
          "internalType": "uint256",
          "name": "",
          "type": "uint256"
        }
      ],
      "stateMutability": "view",
      "type": "function"
    },
    {
      "inputs": [
        {
          "internalType": "address",
          "name": "spender",
          "type": "address"
        },
        {
          "internalType": "uint256",
          "name": "addedValue",
          "type": "uint256"
        }
      ],
      "name": "increaseAllowance",
      "outputs": [
        {
          "internalType": "bool",
          "name": "",
          "type": "bool"
        }
      ],
      "stateMutability": "nonpayable",
      "type": "function"
    },
    {
      "inputs": [
        {
          "internalType": "contract Ink",
          "name": "_ink",
          "type": "address"
        }
      ],
      "name": "initialize",
      "outputs": [],
      "stateMutability": "nonpayable",
      "type": "function"
    },
    {
      "inputs": [],
      "name": "ink",
      "outputs": [
        {
          "internalType": "contract Ink",
          "name": "",
          "type": "address"
        }
      ],
      "stateMutability": "view",
      "type": "function"
    },
    {
      "inputs": [],
      "name": "lastUpdateTimestamp",
      "outputs": [
        {
          "internalType": "uint256",
          "name": "",
          "type": "uint256"
        }
      ],
      "stateMutability": "view",
      "type": "function"
    },
    {
      "inputs": [],
      "name": "maxLockup",
      "outputs": [
        {
          "internalType": "uint256",
          "name": "",
          "type": "uint256"
        }
      ],
      "stateMutability": "view",
      "type": "function"
    },
    {
      "inputs": [],
      "name": "maxMultiplier",
      "outputs": [
        {
          "internalType": "uint256",
          "name": "",
          "type": "uint256"
        }
      ],
      "stateMutability": "view",
      "type": "function"
    },
    {
      "inputs": [],
      "name": "maxRewardPerSecond",
      "outputs": [
        {
          "internalType": "int128",
          "name": "",
          "type": "int128"
        }
      ],
      "stateMutability": "view",
      "type": "function"
    },
    {
      "inputs": [],
      "name": "name",
      "outputs": [
        {
          "internalType": "string",
          "name": "",
          "type": "string"
        }
      ],
      "stateMutability": "view",
      "type": "function"
    },
    {
      "inputs": [
        {
          "internalType": "address",
          "name": "owner",
          "type": "address"
        }
      ],
      "name": "nonces",
      "outputs": [
        {
          "internalType": "uint256",
          "name": "",
          "type": "uint256"
        }
      ],
      "stateMutability": "view",
      "type": "function"
    },
    {
      "inputs": [
        {
          "internalType": "address",
          "name": "account",
          "type": "address"
        }
      ],
      "name": "numCheckpoints",
      "outputs": [
        {
          "internalType": "uint32",
          "name": "",
          "type": "uint32"
        }
      ],
      "stateMutability": "view",
      "type": "function"
    },
    {
      "inputs": [
        {
          "internalType": "address",
          "name": "owner",
          "type": "address"
        },
        {
          "internalType": "address",
          "name": "spender",
          "type": "address"
        },
        {
          "internalType": "uint256",
          "name": "value",
          "type": "uint256"
        },
        {
          "internalType": "uint256",
          "name": "deadline",
          "type": "uint256"
        },
        {
          "internalType": "uint8",
          "name": "v",
          "type": "uint8"
        },
        {
          "internalType": "bytes32",
          "name": "r",
          "type": "bytes32"
        },
        {
          "internalType": "bytes32",
          "name": "s",
          "type": "bytes32"
        }
      ],
      "name": "permit",
      "outputs": [],
      "stateMutability": "nonpayable",
      "type": "function"
    },
    {
      "inputs": [
        {
          "internalType": "uint256",
          "name": "lockup",
          "type": "uint256"
        }
      ],
      "name": "stake",
      "outputs": [],
      "stateMutability": "payable",
      "type": "function"
    },
    {
      "inputs": [
        {
          "internalType": "address",
          "name": "",
          "type": "address"
        },
        {
          "internalType": "uint256",
          "name": "",
          "type": "uint256"
        }
      ],
      "name": "stakingInfo",
      "outputs": [
        {
          "internalType": "uint256",
          "name": "amount",
          "type": "uint256"
        },
        {
          "internalType": "uint256",
          "name": "totalShares",
          "type": "uint256"
        },
        {
          "internalType": "uint256",
          "name": "lockupPeriod",
          "type": "uint256"
        },
        {
          "internalType": "uint256",
          "name": "lockupTimestamp",
          "type": "uint256"
        },
        {
          "internalType": "bool",
          "name": "isWithdrawn",
          "type": "bool"
        }
      ],
      "stateMutability": "view",
      "type": "function"
    },
    {
      "inputs": [],
      "name": "supplyEmissionSoftCap",
      "outputs": [
        {
          "internalType": "int128",
          "name": "",
          "type": "int128"
        }
      ],
      "stateMutability": "view",
      "type": "function"
    },
    {
      "inputs": [],
      "name": "symbol",
      "outputs": [
        {
          "internalType": "string",
          "name": "",
          "type": "string"
        }
      ],
      "stateMutability": "view",
      "type": "function"
    },
    {
      "inputs": [],
      "name": "totalSupply",
      "outputs": [
        {
          "internalType": "uint256",
          "name": "",
          "type": "uint256"
        }
      ],
      "stateMutability": "view",
      "type": "function"
    },
    {
      "inputs": [
        {
          "internalType": "address",
          "name": "to",
          "type": "address"
        },
        {
          "internalType": "uint256",
          "name": "amount",
          "type": "uint256"
        }
      ],
      "name": "transfer",
      "outputs": [
        {
          "internalType": "bool",
          "name": "",
          "type": "bool"
        }
      ],
      "stateMutability": "nonpayable",
      "type": "function"
    },
    {
      "inputs": [
        {
          "internalType": "address",
          "name": "from",
          "type": "address"
        },
        {
          "internalType": "address",
          "name": "to",
          "type": "address"
        },
        {
          "internalType": "uint256",
          "name": "amount",
          "type": "uint256"
        }
      ],
      "name": "transferFrom",
      "outputs": [
        {
          "internalType": "bool",
          "name": "",
          "type": "bool"
        }
      ],
      "stateMutability": "nonpayable",
      "type": "function"
    },
    {
      "inputs": [],
      "name": "updateShares",
      "outputs": [],
      "stateMutability": "nonpayable",
      "type": "function"
    },
    {
      "inputs": [
        {
          "internalType": "uint256",
          "name": "index",
          "type": "uint256"
        }
      ],
      "name": "withdraw",
      "outputs": [],
      "stateMutability": "nonpayable",
      "type": "function"
    }
  ],
  "transactionHash": "0xbaa9838c9ef7f77a3394a27026564e69607dc16603408292a9ca29434386a468",
  "args": [],
  "numDeployments": 1,
  "solcInputHash": "919a699c48fb0598f5fec5bcc8fa26d3",
  "bytecode": "0x608060405234801561001057600080fd5b506133d3806100206000396000f3fe60806040526004361061022f5760003560e01c80635c19a95c1161012e578063c06fcba0116100ab578063d505accf1161006f578063d505accf146106c6578063dd62ed3e146106e6578063dff657c314610706578063ee08c3001461071b578063f1127ed81461073c57600080fd5b8063c06fcba0146105ee578063c3cda52014610638578063c4d66de814610658578063cca9f05114610678578063d283e75f1461069857600080fd5b806395d89b41116100f257806395d89b41146105665780639ab24eb01461057b578063a457c2d71461059b578063a694fc3a146105bb578063a9059cbb146105ce57600080fd5b80635c19a95c146104b15780636fcfff45146104d157806370a08231146105065780637ecebe00146105265780638e539e8c1461054657600080fd5b80632e1a7d4d116101bc5780633a46b1a8116101805780633a46b1a8146103d9578063408e0971146103f95780634a725871146104105780635599f21b1461043e578063587cde1e1461046057600080fd5b80632e1a7d4d14610348578063313ce5671461036857806334f90048146103845780633644e515146103a457806339509351146103b957600080fd5b806314bcec9f1161020357806314bcec9f146102d057806318160ddd146102e65780631b4d5975146102fb57806323b872dd146103115780632a4100681461033157600080fd5b8062faa08c146102345780630187aea01461026757806306fdde031461027e578063095ea7b3146102a0575b600080fd5b34801561024057600080fd5b5061025461024f366004612fac565b610786565b6040519081526020015b60405180910390f35b34801561027357600080fd5b506102546101015481565b34801561028a57600080fd5b5061029361085a565b60405161025e9190612fce565b3480156102ac57600080fd5b506102c06102bb366004613038565b6108ec565b604051901515815260200161025e565b3480156102dc57600080fd5b5061025460ff5481565b3480156102f257600080fd5b50603554610254565b34801561030757600080fd5b5061025460fe5481565b34801561031d57600080fd5b506102c061032c366004613064565b610904565b34801561033d57600080fd5b50610346610928565b005b34801561035457600080fd5b506103466103633660046130a5565b6109a6565b34801561037457600080fd5b506040516012815260200161025e565b34801561039057600080fd5b5061025461039f3660046130be565b610caa565b3480156103b057600080fd5b50610254610ce8565b3480156103c557600080fd5b506102c06103d4366004613038565b610cf7565b3480156103e557600080fd5b506102546103f4366004613038565b610d19565b34801561040557600080fd5b506102546101025481565b34801561041c57600080fd5b506101005461042b90600f0b81565b604051600f9190910b815260200161025e565b34801561044a57600080fd5b506101005461042b90600160801b9004600f0b81565b34801561046c57600080fd5b5061049961047b3660046130ea565b6001600160a01b03908116600090815260cc60205260409020541690565b6040516001600160a01b03909116815260200161025e565b3480156104bd57600080fd5b506103466104cc3660046130ea565b610d93565b3480156104dd57600080fd5b506104f16104ec3660046130ea565b610da0565b60405163ffffffff909116815260200161025e565b34801561051257600080fd5b506102546105213660046130ea565b610dc2565b34801561053257600080fd5b506102546105413660046130ea565b610ddd565b34801561055257600080fd5b506102546105613660046130a5565b610dfb565b34801561057257600080fd5b50610293610e57565b34801561058757600080fd5b506102546105963660046130ea565b610e66565b3480156105a757600080fd5b506102c06105b6366004613038565b610eec565b6103466105c93660046130a5565b610f67565b3480156105da57600080fd5b506102c06105e9366004613038565b611117565b3480156105fa57600080fd5b5061060e610609366004613038565b611125565b6040805195865260208601949094529284019190915260608301521515608082015260a00161025e565b34801561064457600080fd5b5061034661065336600461311d565b611177565b34801561066457600080fd5b506103466106733660046130ea565b6112ad565b34801561068457600080fd5b506102546106933660046130a5565b6114bf565b3480156106a457600080fd5b506102546106b33660046130ea565b6101056020526000908152604090205481565b3480156106d257600080fd5b506103466106e1366004613177565b6115cc565b3480156106f257600080fd5b506102546107013660046131e5565b611730565b34801561071257600080fd5b5061025461175b565b34801561072757600080fd5b5061010354610499906001600160a01b031681565b34801561074857600080fd5b5061075c61075736600461321e565b611769565b60408051825163ffffffff1681526020928301516001600160e01b0316928101929092520161025e565b6000610102548211156107f35760405162461bcd60e51b815260206004820152602a60248201527f63616c634c6f636b75704d756c7469706c6965723a206d6178206c6f636b75706044820152691032bc31b2b2b232b21760b11b60648201526084015b60405180910390fd5b6000610102548360016101015461080a919061326b565b61081790620f4240613282565b6108219190613282565b61082b91906132b7565b905083620f424061083c8383613282565b61084691906132b7565b61085091906132d9565b9150505b92915050565b606060368054610869906132f1565b80601f0160208091040260200160405190810160405280929190818152602001828054610895906132f1565b80156108e25780601f106108b7576101008083540402835291602001916108e2565b820191906000526020600020905b8154815290600101906020018083116108c557829003601f168201915b5050505050905090565b6000336108fa8185856117ec565b5060019392505050565b600033610912858285611910565b61091d85858561198a565b506001949350505050565b603554610935574260ff55565b600061093f61175b565b9050600060ff5442610951919061326b565b9050600061095f8383613282565b905061096a60355490565b61097c82670de0b6b3a7640000613282565b61098691906132b7565b60fe600082825461099791906132d9565b90915550504260ff555050505b565b336000908152610104602052604081208054839081106109c8576109c8613326565b60009182526020918290206040805160a081018252600590930290910180548352600181015493830193909352600283015490820181905260038301546060830181905260049093015460ff16151560808301529092504291610a2b91906132d9565b1115610a875760405162461bcd60e51b815260206004820152602560248201527f77697468647261773a206c6f636b757020706572696f64206e6f74206f766572604482015264103cb2ba1760d91b60648201526084016107ea565b806080015115610ad95760405162461bcd60e51b815260206004820152601c60248201527f77697468647261773a20616c72656164792077697468647261776e2e0000000060448201526064016107ea565b610ae1610928565b336000818152610105602052604081205460fe5491929091670de0b6b3a764000091610b0c90610dc2565b610b169190613282565b610b2091906132b7565b610b2a919061326b565b90508015610b3c57610b3c3382611b46565b3360009081526101046020526040902080546001919085908110610b6257610b62613326565b906000526020600020906005020160040160006101000a81548160ff021916908315150217905550610b98338360200151611bb1565b670de0b6b3a764000060fe54610bad33610dc2565b610bb79190613282565b610bc191906132b7565b336000818152610105602052604080822093909355845192519092908381818185875af1925050503d8060008114610c15576040519150601f19603f3d011682016040523d82523d6000602084013e610c1a565b606091505b5050905080610c6b5760405162461bcd60e51b815260206004820152601c60248201527f77697468647261773a206661696c656420746f2073656e642046544d0000000060448201526064016107ea565b8251604051908152849033907f92ccf450a286a957af52509bc1c9939d1a6a481783e142e41e2499f0bb66ebc69060200160405180910390a350505050565b600080610cb7834261326b565b9050838110610cc857849150610ce0565b83610cd38683613282565b610cdd91906132b7565b91505b509392505050565b6000610cf2611bc9565b905090565b6000336108fa818585610d0a8383611730565b610d1491906132d9565b6117ec565b6000438210610d6a5760405162461bcd60e51b815260206004820152601f60248201527f4552433230566f7465733a20626c6f636b206e6f7420796574206d696e65640060448201526064016107ea565b6001600160a01b038316600090815260cd60205260409020610d8c9083611c44565b9392505050565b610d9d3382611d3a565b50565b6001600160a01b038116600090815260cd602052604081205461085490611dc9565b6001600160a01b031660009081526033602052604090205490565b6001600160a01b038116600090815260996020526040812054610854565b6000438210610e4c5760405162461bcd60e51b815260206004820152601f60248201527f4552433230566f7465733a20626c6f636b206e6f7420796574206d696e65640060448201526064016107ea565b61085460ce83611c44565b606060378054610869906132f1565b6001600160a01b038116600090815260cd60205260408120548015610ed9576001600160a01b038316600090815260cd60205260409020610ea860018361326b565b81548110610eb857610eb8613326565b600091825260209091200154600160201b90046001600160e01b0316610edc565b60005b6001600160e01b03169392505050565b60003381610efa8286611730565b905083811015610f5a5760405162461bcd60e51b815260206004820152602560248201527f45524332303a2064656372656173656420616c6c6f77616e63652062656c6f77604482015264207a65726f60d81b60648201526084016107ea565b61091d82868684036117ec565b610f6f610928565b6000610f7a33610dc2565b1115610fdd57336000818152610105602052604081205460fe5491929091670de0b6b3a764000091610fab90610dc2565b610fb59190613282565b610fbf91906132b7565b610fc9919061326b565b90508015610fdb57610fdb3382611b46565b505b34156110da5760006040518060a001604052803481526020016110003485610786565b8152602080820185905242604080840191909152600060609384018190523380825261010484528282208054600180820183559184529285902087516005909402019283559386015193820184905591850151600282015592840151600384015560808401516004909301805460ff19169315159390931790925591925061108791611e32565b6020808201516060808401516040805134815294850187905284019290925282015233907f9cfd25589d1eb8ad71e342a86a8524e83522e3936c0803048c08f6d9ad974f409060800160405180910390a2505b670de0b6b3a764000060fe546110ef33610dc2565b6110f99190613282565b61110391906132b7565b336000908152610105602052604090205550565b6000336108fa81858561198a565b610104602052816000526040600020818154811061114257600080fd5b600091825260209091206005909102018054600182015460028301546003840154600490940154929550909350919060ff1685565b834211156111c75760405162461bcd60e51b815260206004820152601d60248201527f4552433230566f7465733a207369676e6174757265206578706972656400000060448201526064016107ea565b604080517fe48329057bfd03d55e49b547132e39cffd9c1820ad7b9d4c5307691425d15adf60208201526001600160a01b038816918101919091526060810186905260808101859052600090611241906112399060a00160405160208183030381529060405280519060200120611ebc565b858585611f0a565b905061124c81611f32565b861461129a5760405162461bcd60e51b815260206004820152601960248201527f4552433230566f7465733a20696e76616c6964206e6f6e63650000000000000060448201526064016107ea565b6112a48188611d3a565b50505050505050565b600054610100900460ff16158080156112cd5750600054600160ff909116105b806112e75750303b1580156112e7575060005460ff166001145b61134a5760405162461bcd60e51b815260206004820152602e60248201527f496e697469616c697a61626c653a20636f6e747261637420697320616c72656160448201526d191e481a5b9a5d1a585b1a5e995960921b60648201526084016107ea565b6000805460ff19166001179055801561136d576000805461ff0019166101001790555b61010380546001600160a01b0319166001600160a01b038416179055611391611f5a565b6113d96040518060400160405280600a815260200169496e6b5374616b696e6760b01b815250604051806040016040528060048152602001637346544d60e01b815250611f81565b6114046040518060400160405280600a815260200169496e6b5374616b696e6760b01b815250611fd4565b6114136103e86201518061201e565b61010080546fffffffffffffffffffffffffffffffff19166001600160801b03929092169190911790556114496207a120612055565b61010080546001600160801b03928316600160801b02921691909117905560076101015562ed4e006101025580156114bb576000805461ff0019169055604051600181527f7f26b83ff96e1f2b6a682f133852f6798a09c465da95921460cefb38474024989060200160405180910390a15b5050565b6101005460009081906114dd90600f0b670de0b6b3a7640000612073565b6101005490915061150090600160801b9004600f0b670de0b6b3a7640000612073565b831061150c5792915050565b600061152084670de0b6b3a764000061201e565b6101005490915060009061154f90600160801b8104600f90810b91611546910b856120db565b600f0b90612112565b9050600061155d6001612055565b905060006115b0856115a78461159e60036115958861158c8b61010060009054906101000a9004600f0b612112565b600f0b9061216a565b600f0b9061219d565b600f0b906123c5565b600f0b90612073565b90508481116115bf57806115c1565b845b979650505050505050565b8342111561161c5760405162461bcd60e51b815260206004820152601d60248201527f45524332305065726d69743a206578706972656420646561646c696e6500000060448201526064016107ea565b60007f6e71edae12b1b97f4d1f60370fef10105fa2faae0126114a169c64845d6126c988888861164b8c611f32565b6040805160208101969096526001600160a01b0394851690860152929091166060840152608083015260a082015260c0810186905260e00160405160208183030381529060405280519060200120905060006116a682611ebc565b905060006116b682878787611f0a565b9050896001600160a01b0316816001600160a01b0316146117195760405162461bcd60e51b815260206004820152601e60248201527f45524332305065726d69743a20696e76616c6964207369676e6174757265000060448201526064016107ea565b6117248a8a8a6117ec565b50505050505050505050565b6001600160a01b03918216600090815260346020908152604080832093909416825291909152205490565b6000610cf261069360355490565b60408051808201909152600080825260208201526001600160a01b038316600090815260cd60205260409020805463ffffffff84169081106117ad576117ad613326565b60009182526020918290206040805180820190915291015463ffffffff81168252600160201b90046001600160e01b0316918101919091529392505050565b6001600160a01b03831661184e5760405162461bcd60e51b8152602060048201526024808201527f45524332303a20617070726f76652066726f6d20746865207a65726f206164646044820152637265737360e01b60648201526084016107ea565b6001600160a01b0382166118af5760405162461bcd60e51b815260206004820152602260248201527f45524332303a20617070726f766520746f20746865207a65726f206164647265604482015261737360f01b60648201526084016107ea565b6001600160a01b0383811660008181526034602090815260408083209487168084529482529182902085905590518481527f8c5be1e5ebec7d5bd14f71427d1e84f3dd0314c0f7b2291e5b200ac8c7c3b925910160405180910390a3505050565b600061191c8484611730565b9050600019811461198457818110156119775760405162461bcd60e51b815260206004820152601d60248201527f45524332303a20696e73756666696369656e7420616c6c6f77616e636500000060448201526064016107ea565b61198484848484036117ec565b50505050565b6001600160a01b0383166119ee5760405162461bcd60e51b815260206004820152602560248201527f45524332303a207472616e736665722066726f6d20746865207a65726f206164604482015264647265737360d81b60648201526084016107ea565b6001600160a01b038216611a505760405162461bcd60e51b815260206004820152602360248201527f45524332303a207472616e7366657220746f20746865207a65726f206164647260448201526265737360e81b60648201526084016107ea565b611a5b8383836123f8565b6001600160a01b03831660009081526033602052604090205481811015611ad35760405162461bcd60e51b815260206004820152602660248201527f45524332303a207472616e7366657220616d6f756e7420657863656564732062604482015265616c616e636560d01b60648201526084016107ea565b6001600160a01b0380851660008181526033602052604080822086860390559286168082529083902080548601905591517fddf252ad1be2c89b69c2b068fc378daa952ba7f163c4a11628f55a4df523b3ef90611b339086815260200190565b60405180910390a3611984848484612461565b610103546040516340c10f1960e01b81526001600160a01b03848116600483015260248201849052909116906340c10f1990604401600060405180830381600087803b158015611b9557600080fd5b505af1158015611ba9573d6000803e3d6000fd5b505050505050565b611bbb8282612493565b61198460ce6125da836125e6565b6000610cf27f8b73c3c69bb8fe3d512ecc4cf759cc79239f7b179b0ffacaa9a75d522b39400f611bf860655490565b6066546040805160208101859052908101839052606081018290524660808201523060a082015260009060c0016040516020818303038152906040528051906020012090509392505050565b815460009081816005811115611c9e576000611c5f84612737565b611c69908561326b565b600088815260209020909150869082015463ffffffff161115611c8e57809150611c9c565b611c998160016132d9565b92505b505b80821015611ceb576000611cb2838361281c565b600088815260209020909150869082015463ffffffff161115611cd757809150611ce5565b611ce28160016132d9565b92505b50611c9e565b8015611d2457611d0e86611d0060018461326b565b600091825260209091200190565b54600160201b90046001600160e01b0316611d27565b60005b6001600160e01b03169695505050505050565b6001600160a01b03828116600090815260cc602052604081205490911690611d6184610dc2565b6001600160a01b03858116600081815260cc602052604080822080546001600160a01b031916898616908117909155905194955093928616927f3134e8a2e6d97e929a7e54011ea5485d7d196dd5f0ba4d4ef95803e8e3fc257f9190a4611984828483612837565b600063ffffffff821115611e2e5760405162461bcd60e51b815260206004820152602660248201527f53616665436173743a2076616c756520646f65736e27742066697420696e203360448201526532206269747360d01b60648201526084016107ea565b5090565b611e3c8282612974565b6035546001600160e01b031015611eae5760405162461bcd60e51b815260206004820152603060248201527f4552433230566f7465733a20746f74616c20737570706c79207269736b73206f60448201526f766572666c6f77696e6720766f74657360801b60648201526084016107ea565b61198460ce612a49836125e6565b6000610854611ec9611bc9565b8360405161190160f01b6020820152602281018390526042810182905260009060620160405160208183030381529060405280519060200120905092915050565b6000806000611f1b87878787612a55565b91509150611f2881612b19565b5095945050505050565b6001600160a01b03811660009081526099602052604090208054600181018255905b50919050565b600054610100900460ff166109a45760405162461bcd60e51b81526004016107ea9061333c565b600054610100900460ff16611fa85760405162461bcd60e51b81526004016107ea9061333c565b8151611fbb906036906020850190612f1c565b508051611fcf906037906020840190612f1c565b505050565b600054610100900460ff16611ffb5760405162461bcd60e51b81526004016107ea9061333c565b610d9d81604051806040016040528060018152602001603160f81b815250612c67565b60008161202a57600080fd5b60006120368484612ca8565b905060016001607f1b036001600160801b0382161115610d8c57600080fd5b6000677fffffffffffffff82111561206c57600080fd5b5060401b90565b60008161208257506000610854565b600083600f0b121561209357600080fd5b600f83900b6001600160801b038316810260401c90608084901c026001600160c01b038111156120c257600080fd5b60401b81198111156120d357600080fd5b019392505050565b6000600f83810b9083900b0260401d60016001607f1b03198112801590612109575060016001607f1b038113155b610d8c57600080fd5b600081600f0b6000141561212557600080fd5b600082600f0b604085600f0b901b81612140576121406132a1565b05905060016001607f1b03198112801590612109575060016001607f1b03811315610d8c57600080fd5b6000600f82810b9084900b0360016001607f1b03198112801590612109575060016001607f1b03811315610d8c57600080fd5b600080600084600f0b1280156121b65750826001166001145b905060008085600f0b126121ca57846121cf565b846000035b6001600160801b03169050600160801b68010000000000000000821161226957603f82901b91505b841561226157600185161561220c578102607f1c5b908002607f1c906002851615612222578102607f1c5b908002607f1c906004851615612238578102607f1c5b908002607f1c90600885161561224e578102607f1c5b60049490941c93908002607f1c906121f7565b60401c61237f565b603f600160601b8310156122835760209290921b91601f19015b600160701b83101561229b5760109290921b91600f19015b600160781b8310156122b35760089290921b91600719015b6001607c1b8310156122cb5760049290921b91600319015b6001607e1b8310156122e35760029290921b91600119015b6001607f1b8310156122fb5760019290921b91600019015b60005b8615612368576040821061231157600080fd5b600187161561233757918302607f1c918101600160801b83111561233757600192831c92015b928002607f1c9260019190911b90600160801b841061235c57600193841c9391909101905b600187901c96506122fe565b6040811061237557600080fd5b6040039190911c90505b60008361238c5781612391565b816000035b905060016001607f1b031981128015906123b2575060016001607f1b038113155b6123bb57600080fd5b9695505050505050565b6000600f83810b9083900b0160016001607f1b03198112801590612109575060016001607f1b03811315610d8c57600080fd5b6001600160a01b038316158061241557506001600160a01b038216155b611fcf5760405162461bcd60e51b815260206004820152601f60248201527f7472616e736665723a2063616e206f6e6c79206d696e74206f72206275726e0060448201526064016107ea565b6001600160a01b03838116600090815260cc6020526040808220548584168352912054611fcf92918216911683612837565b6001600160a01b0382166124f35760405162461bcd60e51b815260206004820152602160248201527f45524332303a206275726e2066726f6d20746865207a65726f206164647265736044820152607360f81b60648201526084016107ea565b6124ff826000836123f8565b6001600160a01b038216600090815260336020526040902054818110156125735760405162461bcd60e51b815260206004820152602260248201527f45524332303a206275726e20616d6f756e7420657863656564732062616c616e604482015261636560f01b60648201526084016107ea565b6001600160a01b03831660008181526033602090815260408083208686039055603580548790039055518581529192917fddf252ad1be2c89b69c2b068fc378daa952ba7f163c4a11628f55a4df523b3ef910160405180910390a3611fcf83600084612461565b6000610d8c828461326b565b825460009081908181156126325761260387611d0060018561326b565b60408051808201909152905463ffffffff81168252600160201b90046001600160e01b03166020820152612647565b60408051808201909152600080825260208201525b905080602001516001600160e01b0316935061266784868863ffffffff16565b925060008211801561267f5750805163ffffffff1643145b156126c35761268d83612e09565b61269c88611d0060018661326b565b80546001600160e01b0392909216600160201b0263ffffffff90921691909117905561272d565b8660405180604001604052806126d843611dc9565b63ffffffff1681526020016126ec86612e09565b6001600160e01b039081169091528254600181018455600093845260209384902083519490930151909116600160201b0263ffffffff909316929092179101555b5050935093915050565b60008161274657506000919050565b6000600161275384612e72565b901c6001901b9050600181848161276c5761276c6132a1565b048201901c90506001818481612784576127846132a1565b048201901c9050600181848161279c5761279c6132a1565b048201901c905060018184816127b4576127b46132a1565b048201901c905060018184816127cc576127cc6132a1565b048201901c905060018184816127e4576127e46132a1565b048201901c905060018184816127fc576127fc6132a1565b048201901c9050610d8c81828581612816576128166132a1565b04612f06565b600061282b60028484186132b7565b610d8c908484166132d9565b816001600160a01b0316836001600160a01b0316141580156128595750600081115b15611fcf576001600160a01b038316156128e7576001600160a01b038316600090815260cd602052604081208190612894906125da856125e6565b91509150846001600160a01b03167fdec2bacdd2f05b59de34da9b523dff8be42e5e38e818c82fdb0bae774387a72483836040516128dc929190918252602082015260400190565b60405180910390a250505b6001600160a01b03821615611fcf576001600160a01b038216600090815260cd60205260408120819061291d90612a49856125e6565b91509150836001600160a01b03167fdec2bacdd2f05b59de34da9b523dff8be42e5e38e818c82fdb0bae774387a7248383604051612965929190918252602082015260400190565b60405180910390a25050505050565b6001600160a01b0382166129ca5760405162461bcd60e51b815260206004820152601f60248201527f45524332303a206d696e7420746f20746865207a65726f20616464726573730060448201526064016107ea565b6129d6600083836123f8565b80603560008282546129e891906132d9565b90915550506001600160a01b0382166000818152603360209081526040808320805486019055518481527fddf252ad1be2c89b69c2b068fc378daa952ba7f163c4a11628f55a4df523b3ef910160405180910390a36114bb60008383612461565b6000610d8c82846132d9565b6000807f7fffffffffffffffffffffffffffffff5d576e7357a4501ddfe92f46681b20a0831115612a8c5750600090506003612b10565b6040805160008082526020820180845289905260ff881692820192909252606081018690526080810185905260019060a0016020604051602081039080840390855afa158015612ae0573d6000803e3d6000fd5b5050604051601f1901519150506001600160a01b038116612b0957600060019250925050612b10565b9150600090505b94509492505050565b6000816004811115612b2d57612b2d613387565b1415612b365750565b6001816004811115612b4a57612b4a613387565b1415612b985760405162461bcd60e51b815260206004820152601860248201527f45434453413a20696e76616c6964207369676e6174757265000000000000000060448201526064016107ea565b6002816004811115612bac57612bac613387565b1415612bfa5760405162461bcd60e51b815260206004820152601f60248201527f45434453413a20696e76616c6964207369676e6174757265206c656e6774680060448201526064016107ea565b6003816004811115612c0e57612c0e613387565b1415610d9d5760405162461bcd60e51b815260206004820152602260248201527f45434453413a20696e76616c6964207369676e6174757265202773272076616c604482015261756560f01b60648201526084016107ea565b600054610100900460ff16612c8e5760405162461bcd60e51b81526004016107ea9061333c565b815160209283012081519190920120606591909155606655565b600081612cb457600080fd5b60006001600160c01b038411612cdf5782604085901b81612cd757612cd76132a1565b049050612df5565b60c084811c600160201b8110612cf7576020918201911c5b620100008110612d09576010918201911c5b6101008110612d1a576008918201911c5b60108110612d2a576004918201911c5b60048110612d3a576002918201911c5b60028110612d49576001820191505b60bf820360018603901c6001018260ff0387901b81612d6a57612d6a6132a1565b0492506001600160801b03831115612d8157600080fd5b608085901c83026001600160801b038616840260c088901c604089901b82811015612dad576001820391505b608084901b92900382811015612dc4576001820391505b829003608084901c8214612dd9576001612dea565b888181612de857612de86132a1565b045b870196505050505050505b6001600160801b03811115610d8c57600080fd5b60006001600160e01b03821115611e2e5760405162461bcd60e51b815260206004820152602760248201527f53616665436173743a2076616c756520646f65736e27742066697420696e20326044820152663234206269747360c81b60648201526084016107ea565b600080608083901c15612e8757608092831c92015b604083901c15612e9957604092831c92015b602083901c15612eab57602092831c92015b601083901c15612ebd57601092831c92015b600883901c15612ecf57600892831c92015b600483901c15612ee157600492831c92015b600283901c15612ef357600292831c92015b600183901c156108545760010192915050565b6000818310612f155781610d8c565b5090919050565b828054612f28906132f1565b90600052602060002090601f016020900481019282612f4a5760008555612f90565b82601f10612f6357805160ff1916838001178555612f90565b82800160010185558215612f90579182015b82811115612f90578251825591602001919060010190612f75565b50611e2e9291505b80821115611e2e5760008155600101612f98565b60008060408385031215612fbf57600080fd5b50508035926020909101359150565b600060208083528351808285015260005b81811015612ffb57858101830151858201604001528201612fdf565b8181111561300d576000604083870101525b50601f01601f1916929092016040019392505050565b6001600160a01b0381168114610d9d57600080fd5b6000806040838503121561304b57600080fd5b823561305681613023565b946020939093013593505050565b60008060006060848603121561307957600080fd5b833561308481613023565b9250602084013561309481613023565b929592945050506040919091013590565b6000602082840312156130b757600080fd5b5035919050565b6000806000606084860312156130d357600080fd5b505081359360208301359350604090920135919050565b6000602082840312156130fc57600080fd5b8135610d8c81613023565b803560ff8116811461311857600080fd5b919050565b60008060008060008060c0878903121561313657600080fd5b863561314181613023565b9550602087013594506040870135935061315d60608801613107565b92506080870135915060a087013590509295509295509295565b600080600080600080600060e0888a03121561319257600080fd5b873561319d81613023565b965060208801356131ad81613023565b955060408801359450606088013593506131c960808901613107565b925060a0880135915060c0880135905092959891949750929550565b600080604083850312156131f857600080fd5b823561320381613023565b9150602083013561321381613023565b809150509250929050565b6000806040838503121561323157600080fd5b823561323c81613023565b9150602083013563ffffffff8116811461321357600080fd5b634e487b7160e01b600052601160045260246000fd5b60008282101561327d5761327d613255565b500390565b600081600019048311821515161561329c5761329c613255565b500290565b634e487b7160e01b600052601260045260246000fd5b6000826132d457634e487b7160e01b600052601260045260246000fd5b500490565b600082198211156132ec576132ec613255565b500190565b600181811c9082168061330557607f821691505b60208210811415611f5457634e487b7160e01b600052602260045260246000fd5b634e487b7160e01b600052603260045260246000fd5b6020808252602b908201527f496e697469616c697a61626c653a20636f6e7472616374206973206e6f74206960408201526a6e697469616c697a696e6760a81b606082015260800190565b634e487b7160e01b600052602160045260246000fdfea2646970667358221220c1e009759a249f24b850b272629bcbfa3829599d4070442564563c2b99ef2ec964736f6c63430008090033",
  "devdoc": {
    "kind": "dev",
    "methods": {
      "DOMAIN_SEPARATOR()": {
        "details": "See {IERC20Permit-DOMAIN_SEPARATOR}."
      },
      "allowance(address,address)": {
        "details": "See {IERC20-allowance}."
      },
      "approve(address,uint256)": {
        "details": "See {IERC20-approve}. NOTE: If `amount` is the maximum `uint256`, the allowance is not updated on `transferFrom`. This is semantically equivalent to an infinite approval. Requirements: - `spender` cannot be the zero address."
      },
      "balanceOf(address)": {
        "details": "See {IERC20-balanceOf}."
      },
      "calcCurrentEmissions(uint256)": {
        "params": {
          "_supply": "Total supply, two decimals"
        },
        "returns": {
          "_0": "emission rate"
        }
      },
      "checkpoints(address,uint32)": {
        "details": "Get the `pos`-th checkpoint for `account`."
      },
      "decimals()": {
        "details": "Returns the number of decimals used to get its user representation. For example, if `decimals` equals `2`, a balance of `505` tokens should be displayed to a user as `5.05` (`505 / 10 ** 2`). Tokens usually opt for a value of 18, imitating the relationship between Ether and Wei. This is the value {ERC20} uses, unless this function is overridden; NOTE: This information is only used for _display_ purposes: it in no way affects any of the arithmetic of the contract, including {IERC20-balanceOf} and {IERC20-transfer}."
      },
      "decreaseAllowance(address,uint256)": {
        "details": "Atomically decreases the allowance granted to `spender` by the caller. This is an alternative to {approve} that can be used as a mitigation for problems described in {IERC20-approve}. Emits an {Approval} event indicating the updated allowance. Requirements: - `spender` cannot be the zero address. - `spender` must have allowance for the caller of at least `subtractedValue`."
      },
      "delegate(address)": {
        "details": "Delegate votes from the sender to `delegatee`."
      },
      "delegateBySig(address,uint256,uint256,uint8,bytes32,bytes32)": {
        "details": "Delegates votes from signer to `delegatee`"
      },
      "delegates(address)": {
        "details": "Get the address `account` is currently delegating to."
      },
      "getPastTotalSupply(uint256)": {
        "details": "Retrieve the `totalSupply` at the end of `blockNumber`. Note, this value is the sum of all balances. It is but NOT the sum of all the delegated votes! Requirements: - `blockNumber` must have been already mined"
      },
      "getPastVotes(address,uint256)": {
        "details": "Retrieve the number of votes for `account` at the end of `blockNumber`. Requirements: - `blockNumber` must have been already mined"
      },
      "getVotes(address)": {
        "details": "Gets the current votes balance for `account`"
      },
      "increaseAllowance(address,uint256)": {
        "details": "Atomically increases the allowance granted to `spender` by the caller. This is an alternative to {approve} that can be used as a mitigation for problems described in {IERC20-approve}. Emits an {Approval} event indicating the updated allowance. Requirements: - `spender` cannot be the zero address."
      },
      "name()": {
        "details": "Returns the name of the token."
      },
      "nonces(address)": {
        "details": "See {IERC20Permit-nonces}."
      },
      "numCheckpoints(address)": {
        "details": "Get number of checkpoints for `account`."
      },
      "permit(address,address,uint256,uint256,uint8,bytes32,bytes32)": {
        "details": "See {IERC20Permit-permit}."
      },
      "symbol()": {
        "details": "Returns the symbol of the token, usually a shorter version of the name."
      },
      "totalSupply()": {
        "details": "See {IERC20-totalSupply}."
      },
      "transfer(address,uint256)": {
        "details": "See {IERC20-transfer}. Requirements: - `to` cannot be the zero address. - the caller must have a balance of at least `amount`."
      },
      "transferFrom(address,address,uint256)": {
        "details": "See {IERC20-transferFrom}. Emits an {Approval} event indicating the updated allowance. This is not required by the EIP. See the note at the beginning of {ERC20}. NOTE: Does not update the allowance if the current allowance is the maximum `uint256`. Requirements: - `from` and `to` cannot be the zero address. - `from` must have a balance of at least `amount`. - the caller must have allowance for ``from``'s tokens of at least `amount`."
      }
    },
    "version": 1
  },
  "userdoc": {
    "kind": "user",
    "methods": {
      "calcCurrentEmissions(uint256)": {
        "notice": "Calculate current emission rate based on total supply. Cubic function."
      }
    },
    "version": 1
  },
  "storageLayout": {
    "storage": [
      {
        "astId": 216,
        "contract": "contracts/InkMaker.sol:InkMaker",
        "label": "_initialized",
        "offset": 0,
        "slot": "0",
        "type": "t_uint8"
      },
      {
        "astId": 219,
        "contract": "contracts/InkMaker.sol:InkMaker",
        "label": "_initializing",
        "offset": 1,
        "slot": "0",
        "type": "t_bool"
      },
      {
        "astId": 2362,
        "contract": "contracts/InkMaker.sol:InkMaker",
        "label": "__gap",
        "offset": 0,
        "slot": "1",
        "type": "t_array(t_uint256)50_storage"
      },
      {
        "astId": 397,
        "contract": "contracts/InkMaker.sol:InkMaker",
        "label": "_balances",
        "offset": 0,
        "slot": "51",
        "type": "t_mapping(t_address,t_uint256)"
      },
      {
        "astId": 403,
        "contract": "contracts/InkMaker.sol:InkMaker",
        "label": "_allowances",
        "offset": 0,
        "slot": "52",
        "type": "t_mapping(t_address,t_mapping(t_address,t_uint256))"
      },
      {
        "astId": 405,
        "contract": "contracts/InkMaker.sol:InkMaker",
        "label": "_totalSupply",
        "offset": 0,
        "slot": "53",
        "type": "t_uint256"
      },
      {
        "astId": 407,
        "contract": "contracts/InkMaker.sol:InkMaker",
        "label": "_name",
        "offset": 0,
        "slot": "54",
        "type": "t_string_storage"
      },
      {
        "astId": 409,
        "contract": "contracts/InkMaker.sol:InkMaker",
        "label": "_symbol",
        "offset": 0,
        "slot": "55",
        "type": "t_string_storage"
      },
      {
        "astId": 989,
        "contract": "contracts/InkMaker.sol:InkMaker",
        "label": "__gap",
        "offset": 0,
        "slot": "56",
        "type": "t_array(t_uint256)45_storage"
      },
      {
        "astId": 2982,
        "contract": "contracts/InkMaker.sol:InkMaker",
        "label": "_HASHED_NAME",
        "offset": 0,
        "slot": "101",
        "type": "t_bytes32"
      },
      {
        "astId": 2984,
        "contract": "contracts/InkMaker.sol:InkMaker",
        "label": "_HASHED_VERSION",
        "offset": 0,
        "slot": "102",
        "type": "t_bytes32"
      },
      {
        "astId": 3122,
        "contract": "contracts/InkMaker.sol:InkMaker",
        "label": "__gap",
        "offset": 0,
        "slot": "103",
        "type": "t_array(t_uint256)50_storage"
      },
      {
        "astId": 1836,
        "contract": "contracts/InkMaker.sol:InkMaker",
        "label": "_nonces",
        "offset": 0,
        "slot": "153",
        "type": "t_mapping(t_address,t_struct(Counter)2369_storage)"
      },
      {
        "astId": 1844,
        "contract": "contracts/InkMaker.sol:InkMaker",
        "label": "_PERMIT_TYPEHASH_DEPRECATED_SLOT",
        "offset": 0,
        "slot": "154",
        "type": "t_bytes32"
      },
      {
        "astId": 2000,
        "contract": "contracts/InkMaker.sol:InkMaker",
        "label": "__gap",
        "offset": 0,
        "slot": "155",
        "type": "t_array(t_uint256)49_storage"
      },
      {
        "astId": 1109,
        "contract": "contracts/InkMaker.sol:InkMaker",
        "label": "_delegates",
        "offset": 0,
        "slot": "204",
        "type": "t_mapping(t_address,t_address)"
      },
      {
        "astId": 1115,
        "contract": "contracts/InkMaker.sol:InkMaker",
        "label": "_checkpoints",
        "offset": 0,
        "slot": "205",
        "type": "t_mapping(t_address,t_array(t_struct(Checkpoint)1100_storage)dyn_storage)"
      },
      {
        "astId": 1119,
        "contract": "contracts/InkMaker.sol:InkMaker",
        "label": "_totalSupplyCheckpoints",
        "offset": 0,
        "slot": "206",
        "type": "t_array(t_struct(Checkpoint)1100_storage)dyn_storage"
      },
      {
        "astId": 1784,
        "contract": "contracts/InkMaker.sol:InkMaker",
        "label": "__gap",
        "offset": 0,
        "slot": "207",
        "type": "t_array(t_uint256)47_storage"
      },
      {
        "astId": 8436,
        "contract": "contracts/InkMaker.sol:InkMaker",
        "label": "accumulatedPerShare",
        "offset": 0,
        "slot": "254",
        "type": "t_uint256"
      },
      {
        "astId": 8438,
        "contract": "contracts/InkMaker.sol:InkMaker",
        "label": "lastUpdateTimestamp",
        "offset": 0,
        "slot": "255",
        "type": "t_uint256"
      },
      {
        "astId": 8440,
        "contract": "contracts/InkMaker.sol:InkMaker",
        "label": "maxRewardPerSecond",
        "offset": 0,
        "slot": "256",
        "type": "t_int128"
      },
      {
        "astId": 8442,
        "contract": "contracts/InkMaker.sol:InkMaker",
        "label": "supplyEmissionSoftCap",
        "offset": 16,
        "slot": "256",
        "type": "t_int128"
      },
      {
        "astId": 8444,
        "contract": "contracts/InkMaker.sol:InkMaker",
        "label": "maxMultiplier",
        "offset": 0,
        "slot": "257",
        "type": "t_uint256"
      },
      {
        "astId": 8446,
        "contract": "contracts/InkMaker.sol:InkMaker",
        "label": "maxLockup",
        "offset": 0,
        "slot": "258",
        "type": "t_uint256"
      },
      {
        "astId": 8449,
        "contract": "contracts/InkMaker.sol:InkMaker",
        "label": "ink",
        "offset": 0,
        "slot": "259",
        "type": "t_contract(Ink)8421"
      },
      {
        "astId": 8466,
        "contract": "contracts/InkMaker.sol:InkMaker",
        "label": "stakingInfo",
        "offset": 0,
        "slot": "260",
        "type": "t_mapping(t_address,t_array(t_struct(StakingInfo)8460_storage)dyn_storage)"
      },
      {
        "astId": 8470,
        "contract": "contracts/InkMaker.sol:InkMaker",
        "label": "debtOf",
        "offset": 0,
        "slot": "261",
        "type": "t_mapping(t_address,t_uint256)"
      }
    ],
    "types": {
      "t_address": {
        "encoding": "inplace",
        "label": "address",
        "numberOfBytes": "20"
      },
      "t_array(t_struct(Checkpoint)1100_storage)dyn_storage": {
        "base": "t_struct(Checkpoint)1100_storage",
        "encoding": "dynamic_array",
        "label": "struct ERC20VotesUpgradeable.Checkpoint[]",
        "numberOfBytes": "32"
      },
      "t_array(t_struct(StakingInfo)8460_storage)dyn_storage": {
        "base": "t_struct(StakingInfo)8460_storage",
        "encoding": "dynamic_array",
        "label": "struct InkMaker.StakingInfo[]",
        "numberOfBytes": "32"
      },
      "t_array(t_uint256)45_storage": {
        "base": "t_uint256",
        "encoding": "inplace",
        "label": "uint256[45]",
        "numberOfBytes": "1440"
      },
      "t_array(t_uint256)47_storage": {
        "base": "t_uint256",
        "encoding": "inplace",
        "label": "uint256[47]",
        "numberOfBytes": "1504"
      },
      "t_array(t_uint256)49_storage": {
        "base": "t_uint256",
        "encoding": "inplace",
        "label": "uint256[49]",
        "numberOfBytes": "1568"
      },
      "t_array(t_uint256)50_storage": {
        "base": "t_uint256",
        "encoding": "inplace",
        "label": "uint256[50]",
        "numberOfBytes": "1600"
      },
      "t_bool": {
        "encoding": "inplace",
        "label": "bool",
        "numberOfBytes": "1"
      },
      "t_bytes32": {
        "encoding": "inplace",
        "label": "bytes32",
        "numberOfBytes": "32"
      },
      "t_contract(Ink)8421": {
        "encoding": "inplace",
        "label": "contract Ink",
        "numberOfBytes": "20"
      },
      "t_int128": {
        "encoding": "inplace",
        "label": "int128",
        "numberOfBytes": "16"
      },
      "t_mapping(t_address,t_address)": {
        "encoding": "mapping",
        "key": "t_address",
        "label": "mapping(address => address)",
        "numberOfBytes": "32",
        "value": "t_address"
      },
      "t_mapping(t_address,t_array(t_struct(Checkpoint)1100_storage)dyn_storage)": {
        "encoding": "mapping",
        "key": "t_address",
        "label": "mapping(address => struct ERC20VotesUpgradeable.Checkpoint[])",
        "numberOfBytes": "32",
        "value": "t_array(t_struct(Checkpoint)1100_storage)dyn_storage"
      },
      "t_mapping(t_address,t_array(t_struct(StakingInfo)8460_storage)dyn_storage)": {
        "encoding": "mapping",
        "key": "t_address",
        "label": "mapping(address => struct InkMaker.StakingInfo[])",
        "numberOfBytes": "32",
        "value": "t_array(t_struct(StakingInfo)8460_storage)dyn_storage"
      },
      "t_mapping(t_address,t_mapping(t_address,t_uint256))": {
        "encoding": "mapping",
        "key": "t_address",
        "label": "mapping(address => mapping(address => uint256))",
        "numberOfBytes": "32",
        "value": "t_mapping(t_address,t_uint256)"
      },
      "t_mapping(t_address,t_struct(Counter)2369_storage)": {
        "encoding": "mapping",
        "key": "t_address",
        "label": "mapping(address => struct CountersUpgradeable.Counter)",
        "numberOfBytes": "32",
        "value": "t_struct(Counter)2369_storage"
      },
      "t_mapping(t_address,t_uint256)": {
        "encoding": "mapping",
        "key": "t_address",
        "label": "mapping(address => uint256)",
        "numberOfBytes": "32",
        "value": "t_uint256"
      },
      "t_string_storage": {
        "encoding": "bytes",
        "label": "string",
        "numberOfBytes": "32"
      },
      "t_struct(Checkpoint)1100_storage": {
        "encoding": "inplace",
        "label": "struct ERC20VotesUpgradeable.Checkpoint",
        "members": [
          {
            "astId": 1097,
            "contract": "contracts/InkMaker.sol:InkMaker",
            "label": "fromBlock",
            "offset": 0,
            "slot": "0",
            "type": "t_uint32"
          },
          {
            "astId": 1099,
            "contract": "contracts/InkMaker.sol:InkMaker",
            "label": "votes",
            "offset": 4,
            "slot": "0",
            "type": "t_uint224"
          }
        ],
        "numberOfBytes": "32"
      },
      "t_struct(Counter)2369_storage": {
        "encoding": "inplace",
        "label": "struct CountersUpgradeable.Counter",
        "members": [
          {
            "astId": 2368,
            "contract": "contracts/InkMaker.sol:InkMaker",
            "label": "_value",
            "offset": 0,
            "slot": "0",
            "type": "t_uint256"
          }
        ],
        "numberOfBytes": "32"
      },
      "t_struct(StakingInfo)8460_storage": {
        "encoding": "inplace",
        "label": "struct InkMaker.StakingInfo",
        "members": [
          {
            "astId": 8451,
            "contract": "contracts/InkMaker.sol:InkMaker",
            "label": "amount",
            "offset": 0,
            "slot": "0",
            "type": "t_uint256"
          },
          {
            "astId": 8453,
            "contract": "contracts/InkMaker.sol:InkMaker",
            "label": "totalShares",
            "offset": 0,
            "slot": "1",
            "type": "t_uint256"
          },
          {
            "astId": 8455,
            "contract": "contracts/InkMaker.sol:InkMaker",
            "label": "lockupPeriod",
            "offset": 0,
            "slot": "2",
            "type": "t_uint256"
          },
          {
            "astId": 8457,
            "contract": "contracts/InkMaker.sol:InkMaker",
            "label": "lockupTimestamp",
            "offset": 0,
            "slot": "3",
            "type": "t_uint256"
          },
          {
            "astId": 8459,
            "contract": "contracts/InkMaker.sol:InkMaker",
            "label": "isWithdrawn",
            "offset": 0,
            "slot": "4",
            "type": "t_bool"
          }
        ],
        "numberOfBytes": "160"
      },
      "t_uint224": {
        "encoding": "inplace",
        "label": "uint224",
        "numberOfBytes": "28"
      },
      "t_uint256": {
        "encoding": "inplace",
        "label": "uint256",
        "numberOfBytes": "32"
      },
      "t_uint32": {
        "encoding": "inplace",
        "label": "uint32",
        "numberOfBytes": "4"
      },
      "t_uint8": {
        "encoding": "inplace",
        "label": "uint8",
        "numberOfBytes": "1"
      }
    }
  }
}